{"abi":[{"type":"constructor","inputs":[{"name":"uniswapRouter_","type":"address","internalType":"address"},{"name":"uniswapQuoter_","type":"address","internalType":"address"},{"name":"oneInchRouter_","type":"address","internalType":"address"},{"name":"feeRecipient_","type":"address","internalType":"address"},{"name":"protocolFeeBps_","type":"uint256","internalType":"uint256"}],"stateMutability":"nonpayable"},{"type":"function","name":"BPS_BASE","inputs":[],"outputs":[{"name":"","type":"uint256","internalType":"uint256"}],"stateMutability":"view"},{"type":"function","name":"MAX_FEE_BPS","inputs":[],"outputs":[{"name":"","type":"uint256","internalType":"uint256"}],"stateMutability":"view"},{"type":"function","name":"feeRecipient","inputs":[],"outputs":[{"name":"","type":"address","internalType":"address"}],"stateMutability":"view"},{"type":"function","name":"getUniswapMultiHopQuote","inputs":[{"name":"path","type":"bytes","internalType":"bytes"},{"name":"amountIn","type":"uint256","internalType":"uint256"}],"outputs":[{"name":"amountOut","type":"uint256","internalType":"uint256"}],"stateMutability":"nonpayable"},{"type":"function","name":"getUniswapSingleQuote","inputs":[{"name":"tokenIn","type":"address","internalType":"address"},{"name":"tokenOut","type":"address","internalType":"address"},{"name":"poolFee","type":"uint24","internalType":"uint24"},{"name":"amountIn","type":"uint256","internalType":"uint256"}],"outputs":[{"name":"amountOut","type":"uint256","internalType":"uint256"}],"stateMutability":"nonpayable"},{"type":"function","name":"oneInchRouter","inputs":[],"outputs":[{"name":"","type":"address","internalType":"contract IOneInchRouterV5"}],"stateMutability":"view"},{"type":"function","name":"owner","inputs":[],"outputs":[{"name":"","type":"address","internalType":"address"}],"stateMutability":"view"},{"type":"function","name":"protocolFeeBps","inputs":[],"outputs":[{"name":"","type":"uint256","internalType":"uint256"}],"stateMutability":"view"},{"type":"function","name":"renounceOwnership","inputs":[],"outputs":[],"stateMutability":"nonpayable"},{"type":"function","name":"rescueTokens","inputs":[{"name":"token","type":"address","internalType":"address"},{"name":"to","type":"address","internalType":"address"},{"name":"amount","type":"uint256","internalType":"uint256"}],"outputs":[],"stateMutability":"nonpayable"},{"type":"function","name":"setFeeRecipient","inputs":[{"name":"recipient","type":"address","internalType":"address"}],"outputs":[],"stateMutability":"nonpayable"},{"type":"function","name":"setProtocolFee","inputs":[{"name":"feeBps","type":"uint256","internalType":"uint256"}],"outputs":[],"stateMutability":"nonpayable"},{"type":"function","name":"swapBestRate","inputs":[{"name":"tokenIn","type":"address","internalType":"address"},{"name":"tokenOut","type":"address","internalType":"address"},{"name":"poolFee","type":"uint24","internalType":"uint24"},{"name":"amountIn","type":"uint256","internalType":"uint256"},{"name":"minAmountOut","type":"uint256","internalType":"uint256"},{"name":"recipient","type":"address","internalType":"address"},{"name":"uniswapExpectedOut","type":"uint256","internalType":"uint256"},{"name":"oneInchExpectedOut","type":"uint256","internalType":"uint256"},{"name":"oneInchExecutor","type":"address","internalType":"address"},{"name":"oneInchPermit","type":"bytes","internalType":"bytes"},{"name":"oneInchData","type":"bytes","internalType":"bytes"}],"outputs":[{"name":"amountOut","type":"uint256","internalType":"uint256"},{"name":"usedProtocol","type":"uint8","internalType":"enum SwapRouter.Protocol"}],"stateMutability":"nonpayable"},{"type":"function","name":"swapMultiHop","inputs":[{"name":"path","type":"bytes","internalType":"bytes"},{"name":"tokenIn","type":"address","internalType":"address"},{"name":"amountIn","type":"uint256","internalType":"uint256"},{"name":"minAmountOut","type":"uint256","internalType":"uint256"},{"name":"recipient","type":"address","internalType":"address"}],"outputs":[{"name":"amountOut","type":"uint256","internalType":"uint256"}],"stateMutability":"nonpayable"},{"type":"function","name":"swapOneInch","inputs":[{"name":"tokenIn","type":"address","internalType":"address"},{"name":"tokenOut","type":"address","internalType":"address"},{"name":"amountIn","type":"uint256","internalType":"uint256"},{"name":"minAmountOut","type":"uint256","internalType":"uint256"},{"name":"recipient","type":"address","internalType":"address"},{"name":"executor","type":"address","internalType":"address"},{"name":"permit","type":"bytes","internalType":"bytes"},{"name":"data","type":"bytes","internalType":"bytes"}],"outputs":[{"name":"amountOut","type":"uint256","internalType":"uint256"}],"stateMutability":"nonpayable"},{"type":"function","name":"swapSingle","inputs":[{"name":"tokenIn","type":"address","internalType":"address"},{"name":"tokenOut","type":"address","internalType":"address"},{"name":"poolFee","type":"uint24","internalType":"uint24"},{"name":"amountIn","type":"uint256","internalType":"uint256"},{"name":"minAmountOut","type":"uint256","internalType":"uint256"},{"name":"recipient","type":"address","internalType":"address"}],"outputs":[{"name":"amountOut","type":"uint256","internalType":"uint256"}],"stateMutability":"nonpayable"},{"type":"function","name":"transferOwnership","inputs":[{"name":"newOwner","type":"address","internalType":"address"}],"outputs":[],"stateMutability":"nonpayable"},{"type":"function","name":"uniswapQuoter","inputs":[],"outputs":[{"name":"","type":"address","internalType":"contract IQuoterV2"}],"stateMutability":"view"},{"type":"function","name":"uniswapRouter","inputs":[],"outputs":[{"name":"","type":"address","internalType":"contract IUniswapV3Router"}],"stateMutability":"view"},{"type":"event","name":"FeeCollected","inputs":[{"name":"token","type":"address","indexed":true,"internalType":"address"},{"name":"amount","type":"uint256","indexed":false,"internalType":"uint256"}],"anonymous":false},{"type":"event","name":"FeeRecipientSet","inputs":[{"name":"recipient","type":"address","indexed":true,"internalType":"address"}],"anonymous":false},{"type":"event","name":"OwnershipTransferred","inputs":[{"name":"previousOwner","type":"address","indexed":true,"internalType":"address"},{"name":"newOwner","type":"address","indexed":true,"internalType":"address"}],"anonymous":false},{"type":"event","name":"ProtocolFeeSet","inputs":[{"name":"feeBps","type":"uint256","indexed":false,"internalType":"uint256"}],"anonymous":false},{"type":"event","name":"SwapExecuted","inputs":[{"name":"sender","type":"address","indexed":true,"internalType":"address"},{"name":"tokenIn","type":"address","indexed":true,"internalType":"address"},{"name":"tokenOut","type":"address","indexed":true,"internalType":"address"},{"name":"amountIn","type":"uint256","indexed":false,"internalType":"uint256"},{"name":"amountOut","type":"uint256","indexed":false,"internalType":"uint256"},{"name":"feeAmount","type":"uint256","indexed":false,"internalType":"uint256"},{"name":"protocol","type":"uint8","indexed":false,"internalType":"enum SwapRouter.Protocol"}],"anonymous":false},{"type":"error","name":"FeeTooHigh","inputs":[{"name":"given","type":"uint256","internalType":"uint256"},{"name":"max","type":"uint256","internalType":"uint256"}]},{"type":"error","name":"InsufficientOutput","inputs":[{"name":"actual","type":"uint256","internalType":"uint256"},{"name":"minimum","type":"uint256","internalType":"uint256"}]},{"type":"error","name":"InvalidPath","inputs":[]},{"type":"error","name":"OwnableInvalidOwner","inputs":[{"name":"owner","type":"address","internalType":"address"}]},{"type":"error","name":"OwnableUnauthorizedAccount","inputs":[{"name":"account","type":"address","internalType":"address"}]},{"type":"error","name":"ReentrancyGuardReentrantCall","inputs":[]},{"type":"error","name":"SafeERC20FailedOperation","inputs":[{"name":"token","type":"address","internalType":"address"}]},{"type":"error","name":"ZeroAddress","inputs":[]},{"type":"error","name":"ZeroAmount","inputs":[]}],"bytecode":{"object":"0x60e0346200021957601f62001ace38819003918201601f191683019291906001600160401b038411838510176200021d578160a092849260409687528339810103126200021957620000518162000231565b6200005f6020830162000231565b906200006d84840162000231565b9260806200007e6060830162000231565b91015193331562000202575f549360018060a01b03199433868216175f5587519060018060a01b03958691823391167f8be0079c531659141344cd1fd0a4f28419497f9722a3daafe3b4186f6b6457e05f80a360017f9b779b17422d0df92223018b32b4d1fa46e071723d6817e2486d003becc55f0055169081158015620001f7575b8015620001ec575b8015620001e1575b620001d2575060648711620001b35784929183916080521660a0521660c0521690600254161760025560015551611887908162000247823960805181818161061d0152818161082c01528181610c2a01528181610d3801528181610e400152610e7e015260a0518181816101f3015281816104aa0152610f8e015260c0518181816109dc01528181610a7201528181610ab901528181610b2f01526110ba0152f35b87516373ab893560e11b81526004810188905260646024820152604490fd5b63d92e233d60e01b8152600490fd5b508585161562000111565b508584161562000109565b508583161562000101565b8551631e4fbdf760e01b81525f6004820152602490fd5b5f80fd5b634e487b7160e01b5f52604160045260245ffd5b51906001600160a01b0382168203620002195756fe60806040526004361015610011575f80fd5b5f3560e01c806219ab481461100257806335659fb814610fe55780634690484014610fbd5780634db4a35214610f795780635be1245714610cb0578063715018a614610c59578063735de9f714610c15578063787dce3d14610ba15780638da5cb5b14610b7a5780639eaa1b0914610b5e578063ac3af20814610b1a578063b1825de614610753578063ba56ef03146105a7578063cea9d26f1461055c578063d55be8c614610541578063d98b4e5f146103e4578063e74b981b1461036a578063e9c661b5146101775763f2fde38b146100e9575f80fd5b34610173576020366003190112610173576101026111f4565b61010a611544565b6001600160a01b0390811690811561015b575f54826bffffffffffffffffffffffff60a01b8216175f55167f8be0079c531659141344cd1fd0a4f28419497f9722a3daafe3b4186f6b6457e05f80a3005b604051631e4fbdf760e01b81525f6004820152602490fd5b5f80fd5b346101735760403660031901126101735767ffffffffffffffff600435818111610173576101a990369060040161124c565b919060243590811561035857602b8410610346576101e6935f92604051958693849363cdca175360e01b8552604060048601526044850191611328565b60248301919091520381837f00000000000000000000000000000000000000000000000000000000000000006001600160a01b03165af190811561033b575f91610236575b602082604051908152f35b90503d805f843e61024781846112c9565b8201608083820312610173578251916020938481015182811161017357810183601f8201121561017357805190868061027f84611310565b61028c60405191826112c9565b848152019260051b820101918583116101735787809201905b83821061032457505050506040810151918211610173570181601f820112156101735780519084806102d684611310565b6102e360405191826112c9565b848152019260051b820101928311610173578401905b82821061030d57505050602091508261022b565b848091610319846112ff565b8152019101906102f9565b828091610330846112eb565b8152019101906102a5565b6040513d5f823e3d90fd5b6040516320db826760e01b8152600490fd5b604051631f2a200560e01b8152600490fd5b34610173576020366003190112610173576103836111f4565b61038b611544565b6001600160a01b031680156103d257600280546001600160a01b031916821790557fbf9a9534339a9d6b81696e05dcfb614b7dc518a31d48be3cfb757988381fb3235f80a2005b60405163d92e233d60e01b8152600490fd5b3461017357608080600319360112610173576103fe6111f4565b9061040761120a565b9161041061127a565b906064359081156103585760405160a0810181811067ffffffffffffffff82111761052d57859460a4935f9260405260018060a01b0395869283809316865282602087019b168b52604086019182526060860162ffffff809216815289870192868452846040519d8e9b8c9a636352813560e11b8c52511660048b01525116602489015251604488015251166064860152511660848401527f0000000000000000000000000000000000000000000000000000000000000000165af190811561033b575f916104e457602082604051908152f35b905081813d8311610526575b6104fa81836112c9565b81010312610173578061051f604060209351926105188582016112eb565b50016112ff565b508261022b565b503d6104f0565b634e487b7160e01b5f52604160045260245ffd5b34610173575f36600319011261017357602060405160648152f35b34610173576060366003190112610173576105756111f4565b61057d61120a565b90610586611544565b6001600160a01b0391808316156103d2576105a592604435921661156f565b005b346101735760c0366003190112610173576105c06111f4565b6105c861120a565b906105d161127a565b90608435906064356105e1611236565b6105e96117e2565b8115610358576001600160a01b039081169384156103d2578161069b9662ffffff98610615868861143f565b9590971696837f0000000000000000000000000000000000000000000000000000000000000000169361064982868b61169d565b60405192610656846112ad565b898452169860209b8c948b86860152166040840152606083015260808201528360a08201525f60c0820152604051809981926304e45aaf60e01b835260048301611348565b03815f855af196871561033b575f97610722575b506106ba90856115ed565b8086106107045750604051918252848683015260408201525f60608201525f8051602061181283398151915260803392a460015f8051602061183283398151915255604051908152f35b8560449160405191630583371760e31b835260048301526024820152fd5b9096508781813d831161074c575b61073a81836112c9565b810103126101735751956106ba6106af565b503d610730565b34610173576101603660031901126101735761076d6111f4565b61077561120a565b9061077e61127a565b90610787611236565b610104356001600160a01b03811690036101735767ffffffffffffffff9061012435828111610173576107be90369060040161124c565b94909261014435908111610173576107da90369060040161124c565b95906107e46117e2565b60643515610358576001600160a01b038416156103d2576108076064358761143f565b909790959060e43560c435106109aa575050506001600160a01b03858116966108c0947f000000000000000000000000000000000000000000000000000000000000000090921693602093509161085f82868b61169d565b62ffffff60405193610870856112ad565b8a855260018060a01b038c168686015216604084015260018060a01b03166060830152608082015260843560a08201525f60c0820152604051809481926304e45aaf60e01b835260048301611348565b03815f855af1801561033b575f90610977575b6108de9250946115ed565b5f935b6084358085106109595750916040949161095793865191606435835286602084015287830152610914606083018561128c565b6001600160a01b0390811692169033905f8051602061181283398151915290608090a460015f80516020611832833981519152558351928352602083019061128c565bf35b8460449160405191630583371760e31b835260048301526024820152fd5b506020823d82116109a2575b81610990602093836112c9565b81010312610173576108de91516108d3565b3d9150610983565b9597929591949093509190610104356001600160a01b0316156103d257604094610a6d92610a05816001600160a01b037f00000000000000000000000000000000000000000000000000000000000000008116908c1661169d565b865194610a11866112ad565b6001600160a01b038a811687528c81166020880152610104358082168a89015291166060870152608086019190915260843560a08601525f60c086015286516312aa3caf60e01b815297889687969192909190600488016113ba565b03815f7f00000000000000000000000000000000000000000000000000000000000000006001600160a01b03165af190811561033b575f91610aea575b5091610ae26001600160a01b037f000000000000000000000000000000000000000000000000000000000000000081169084166115ed565b6001936108e1565b610b0c915060403d604011610b13575b610b0481836112c9565b8101906113a4565b5084610aaa565b503d610afa565b34610173575f366003190112610173576040517f00000000000000000000000000000000000000000000000000000000000000006001600160a01b03168152602090f35b34610173575f3660031901126101735760206040516127108152f35b34610173575f366003190112610173575f546040516001600160a01b039091168152602090f35b3461017357602036600319011261017357600435610bbd611544565b60648111610bf6576020817fdb5aafdb29539329e37d4e3ee869bc4031941fd55a5dfc92824fbe34b204e30d92600155604051908152a1005b604490604051906373ab893560e11b8252600482015260646024820152fd5b34610173575f366003190112610173576040517f00000000000000000000000000000000000000000000000000000000000000006001600160a01b03168152602090f35b34610173575f36600319011261017357610c71611544565b5f80546001600160a01b0319811682556001600160a01b03167f8be0079c531659141344cd1fd0a4f28419497f9722a3daafe3b4186f6b6457e08280a3005b346101735760a03660031901126101735767ffffffffffffffff60043581811161017357610ce290369060040161124c565b9190610cec61120a565b90610cf5611220565b610cfd6117e2565b60443515610358576001600160a01b03169081156103d257602b851061034657610d296044358461143f565b92610d61826001600160a01b037f0000000000000000000000000000000000000000000000000000000000000000811690881661169d565b6040519560808701908782108183111761052d5781604052881161052d57610d93601f8901601f1916602001826112c9565b878152368885011161017357878460a08901375f60a0898901015286526020860152604085015260643560608501526040519363b858183f60e01b85526020600486015284815191608060248301528251928360a48401525f5b848110610f615750505f60c483850181018290526020838101516001600160a01b03908116604487015260408501516064870152606090940151608486015294601f01601f1916840184900301918391907f0000000000000000000000000000000000000000000000000000000000000000165af193841561033b575f94610f2d575b50610ea76001600160a01b037f000000000000000000000000000000000000000000000000000000000000000081169085166115ed565b6064358410610f0c57602094604051926044358452858785015260408401525f60608401526013199101013560601c9160018060a01b0316905f8051602061181283398151915260803392a460015f8051602061183283398151915255604051908152f35b604051630583371760e31b8152600481018590526064356024820152604490fd5b9093506020813d602011610f59575b81610f49602093836112c9565b8101031261017357519285610e70565b3d9150610f3c565b602082820181015160c48b8401015289945001610ded565b34610173575f366003190112610173576040517f00000000000000000000000000000000000000000000000000000000000000006001600160a01b03168152602090f35b34610173575f366003190112610173576002546040516001600160a01b039091168152602090f35b34610173575f366003190112610173576020600154604051908152f35b34610173576101003660031901126101735761101c6111f4565b61102461120a565b9061102d611220565b90611036611236565b67ffffffffffffffff929060c4358481116101735761105990369060040161124c565b95909460e4359081116101735761107490369060040161124c565b9461107d6117e2565b604435958615610358576001600160a01b03958616801580156111ea575b6103d25786956111376040936110b18b8761143f565b97906110e5818c7f0000000000000000000000000000000000000000000000000000000000000000169d8e9a169d8e61169d565b8651956110f1876112ad565b8c87528b8b1660208801528b861688880152606087015260808601526064359d8e60a08701525f60c087015286519d8e9687966312aa3caf60e01b8852600488016113ba565b03815f855af196871561033b575f976111c4575b5061115690856115ed565b8686106111a65760209650604051948552858786015260408501526001606085015216915f8051602061181283398151915260803392a460015f8051602061183283398151915255604051908152f35b6044868860405191630583371760e31b835260048301526024820152fd5b6111569197506111e29060403d604011610b1357610b0481836112c9565b50969061114b565b508686161561109b565b600435906001600160a01b038216820361017357565b602435906001600160a01b038216820361017357565b608435906001600160a01b038216820361017357565b60a435906001600160a01b038216820361017357565b9181601f840112156101735782359167ffffffffffffffff8311610173576020838186019501011161017357565b6044359062ffffff8216820361017357565b9060028210156112995752565b634e487b7160e01b5f52602160045260245ffd5b60e0810190811067ffffffffffffffff82111761052d57604052565b90601f8019910116810190811067ffffffffffffffff82111761052d57604052565b51906001600160a01b038216820361017357565b519063ffffffff8216820361017357565b67ffffffffffffffff811161052d5760051b60200190565b908060209392818452848401375f828201840152601f01601f1916010190565b91909160c060e08201938160018060a01b039182815116855282602082015116602086015262ffffff60408201511660408601528260608201511660608601526080810151608086015260a081015160a0860152015116910152565b9190826040910312610173576020825192015190565b9492909360c061142d9361143c989660018060a01b0380911689528082511660208a01528060208301511660408a01528060408301511660608a01526060820151166080890152608081015160a089015260a081015182890152015160e087015261014080610100880152860191611328565b92610120818503910152611328565b90565b6040516323b872dd60e01b5f908152336004523060245260448490526001600160a01b0393928416919060209060648180865af160015f5114811615611525575b816040525f6060521561151157506001548083029083820414831517156114bd5761271090049283806114d1575b91505081039081116114bd5791565b634e487b7160e01b5f52601160045260245ffd5b6114df91600254168361156f565b7f06c5efeff5c320943d265dc4e5f1af95ad523555ce0c1957e367dda5514572df6020604051858152a25f80836114ae565b602491635274afe760e01b82526004820152fd5b600181151661153b57823b15153d151616611480565b503d5f823e3d90fd5b5f546001600160a01b0316330361155757565b60405163118cdaa760e01b8152336004820152602490fd5b60405163a9059cbb60e01b5f9081526001600160a01b039384166004526024949094529260209060448180855af160015f51148116156115ce575b83604052156115b857505050565b635274afe760e01b835216600482015260249150fd5b60018115166115e457813b15153d1516166115aa565b833d5f823e3d90fd5b60405163095ea7b360e01b5f9081526001600160a01b0380851660045260248290529293919060209060448180885af19060015f511482161561168e575b6040521561163857505050565b6116428184611778565b15611674576116519083611778565b1561165a575050565b604051635274afe760e01b81529116600482015260249150fd5b604051635274afe760e01b81528284166004820152602490fd5b90843b15153d1516169061162b565b60405163095ea7b360e01b5f8181526001600160a01b038086166004819052602488905292969095929390929160209060448180895af19060015f5114821615611769575b604052156116f3575b505050505050565b6116fd9084611778565b1561174f57906020915f9160405196835260045260245260448180855af160015f5114811615611739575b83604052156115b8578080806116eb565b60018115166115e457813b15153d151616611728565b604051635274afe760e01b81528484166004820152602490fd5b90853b15153d151616906116e2565b60405163095ea7b360e01b5f9081526001600160a01b0390931660045260248390529192919060208460448180855af19360018151148516156117bd575b5050604052565b600185939515166117d857503b15153d151616915f806117b6565b84903d90823e3d90fd5b5f8051602061183283398151915260028154146117ff5760029055565b604051633ee5aeb560e01b8152600490fdfee38f7cf47df9687665c88a9c4127d6929a9f4c1a087b796e3bb46db3679d4afe9b779b17422d0df92223018b32b4d1fa46e071723d6817e2486d003becc55f00a26469706673582212202e371c52025361abf98cebe64db27eb136bd6b04acf23c8cb613e2afea86facf64736f6c63430008140033","linkReferences":{}},"methodIdentifiers":{"BPS_BASE()":"9eaa1b09","MAX_FEE_BPS()":"d55be8c6","feeRecipient()":"46904840","getUniswapMultiHopQuote(bytes,uint256)":"e9c661b5","getUniswapSingleQuote(address,address,uint24,uint256)":"d98b4e5f","oneInchRouter()":"ac3af208","owner()":"8da5cb5b","protocolFeeBps()":"35659fb8","renounceOwnership()":"715018a6","rescueTokens(address,address,uint256)":"cea9d26f","setFeeRecipient(address)":"e74b981b","setProtocolFee(uint256)":"787dce3d","swapBestRate(address,address,uint24,uint256,uint256,address,uint256,uint256,address,bytes,bytes)":"b1825de6","swapMultiHop(bytes,address,uint256,uint256,address)":"5be12457","swapOneInch(address,address,uint256,uint256,address,address,bytes,bytes)":"0019ab48","swapSingle(address,address,uint24,uint256,uint256,address)":"ba56ef03","transferOwnership(address)":"f2fde38b","uniswapQuoter()":"4db4a352","uniswapRouter()":"735de9f7"},"id":0}